{
  "contractName": "InsuranceManager",
  "abi": [
    {
      "anonymous": false,
      "inputs": [
        {
          "indexed": false,
          "internalType": "uint256",
          "name": "policyId",
          "type": "uint256"
        },
        {
          "indexed": false,
          "internalType": "string",
          "name": "companyName",
          "type": "string"
        },
        {
          "indexed": false,
          "internalType": "string",
          "name": "policyName",
          "type": "string"
        },
        {
          "indexed": false,
          "internalType": "address",
          "name": "insurer",
          "type": "address"
        }
      ],
      "name": "PolicyCreated",
      "type": "event"
    },
    {
      "inputs": [
        {
          "internalType": "uint256",
          "name": "",
          "type": "uint256"
        }
      ],
      "name": "policies",
      "outputs": [
        {
          "internalType": "uint256",
          "name": "policyId",
          "type": "uint256"
        },
        {
          "internalType": "string",
          "name": "companyName",
          "type": "string"
        },
        {
          "internalType": "string",
          "name": "policyName",
          "type": "string"
        },
        {
          "internalType": "string",
          "name": "coverageInfo",
          "type": "string"
        },
        {
          "internalType": "uint256",
          "name": "basePremium",
          "type": "uint256"
        },
        {
          "internalType": "uint256",
          "name": "policyAmount",
          "type": "uint256"
        },
        {
          "internalType": "uint256",
          "name": "policyTenure",
          "type": "uint256"
        },
        {
          "internalType": "address",
          "name": "insurer",
          "type": "address"
        }
      ],
      "stateMutability": "view",
      "type": "function",
      "constant": true
    },
    {
      "inputs": [],
      "name": "policyCounter",
      "outputs": [
        {
          "internalType": "uint256",
          "name": "",
          "type": "uint256"
        }
      ],
      "stateMutability": "view",
      "type": "function",
      "constant": true
    },
    {
      "inputs": [
        {
          "internalType": "string",
          "name": "_companyName",
          "type": "string"
        },
        {
          "internalType": "string",
          "name": "_policyName",
          "type": "string"
        },
        {
          "internalType": "string",
          "name": "_coverageInfo",
          "type": "string"
        },
        {
          "internalType": "uint256",
          "name": "_basePremium",
          "type": "uint256"
        },
        {
          "internalType": "uint256",
          "name": "_policyAmount",
          "type": "uint256"
        },
        {
          "internalType": "uint256",
          "name": "_policyTenure",
          "type": "uint256"
        }
      ],
      "name": "createPolicy",
      "outputs": [],
      "stateMutability": "nonpayable",
      "type": "function"
    },
    {
      "inputs": [
        {
          "internalType": "uint256",
          "name": "_policyId",
          "type": "uint256"
        }
      ],
      "name": "getPolicy",
      "outputs": [
        {
          "components": [
            {
              "internalType": "uint256",
              "name": "policyId",
              "type": "uint256"
            },
            {
              "internalType": "string",
              "name": "companyName",
              "type": "string"
            },
            {
              "internalType": "string",
              "name": "policyName",
              "type": "string"
            },
            {
              "internalType": "string",
              "name": "coverageInfo",
              "type": "string"
            },
            {
              "internalType": "uint256",
              "name": "basePremium",
              "type": "uint256"
            },
            {
              "internalType": "uint256",
              "name": "policyAmount",
              "type": "uint256"
            },
            {
              "internalType": "uint256",
              "name": "policyTenure",
              "type": "uint256"
            },
            {
              "internalType": "address",
              "name": "insurer",
              "type": "address"
            }
          ],
          "internalType": "struct InsuranceManager.Policy",
          "name": "",
          "type": "tuple"
        }
      ],
      "stateMutability": "view",
      "type": "function",
      "constant": true
    },
    {
      "inputs": [],
      "name": "getPolicyCount",
      "outputs": [
        {
          "internalType": "uint256",
          "name": "",
          "type": "uint256"
        }
      ],
      "stateMutability": "view",
      "type": "function",
      "constant": true
    }
  ],
  "bytecode": "0x608060405234801561001057600080fd5b50610b8f806100206000396000f3fe608060405234801561001057600080fd5b5060043610610073577c010000000000000000000000000000000000000000000000000000000060003504632b07fce38114610078578063cb4f2759146100a1578063d3e89483146100b6578063d52c1bea146100dd578063e59771d2146100f4575b600080fd5b61008b610086366004610690565b6100fc565b60405161009891906106ef565b60405180910390f35b6100b46100af366004610854565b61035d565b005b6100c96100c4366004610690565b6104ae565b6040516100989897969594939291906108f8565b6100e660005481565b604051908152602001610098565b6000546100e6565b61014d604051806101000160405280600081526020016060815260200160608152602001606081526020016000815260200160008152602001600081526020016000600160a060020a031681525090565b600082815260016020818152604092839020835161010081019094528054845291820180549184019161017f9061096b565b80601f01602080910402602001604051908101604052809291908181526020018280546101ab9061096b565b80156101f85780601f106101cd576101008083540402835291602001916101f8565b820191906000526020600020905b8154815290600101906020018083116101db57829003601f168201915b505050505081526020016002820180546102119061096b565b80601f016020809104026020016040519081016040528092919081815260200182805461023d9061096b565b801561028a5780601f1061025f5761010080835404028352916020019161028a565b820191906000526020600020905b81548152906001019060200180831161026d57829003601f168201915b505050505081526020016003820180546102a39061096b565b80601f01602080910402602001604051908101604052809291908181526020018280546102cf9061096b565b801561031c5780601f106102f15761010080835404028352916020019161031c565b820191906000526020600020905b8154815290600101906020018083116102ff57829003601f168201915b5050509183525050600482015460208201526005820154604082015260068201546060820152600790910154600160a060020a031660809091015292915050565b604051806101000160405280600054815260200187815260200186815260200185815260200184815260200183815260200182815260200133600160a060020a031681525060016000805481526020019081526020016000206000820151816000015560208201518160010190816103d59190610a0d565b50604082015160028201906103ea9082610a0d565b50606082015160038201906103ff9082610a0d565b506080820151600482015560a0820151600582015560c0820151600682015560e0909101516007909101805473ffffffffffffffffffffffffffffffffffffffff1916600160a060020a039092169190911790556000546040517f3456f0339f51c257aede3e74718498d7acb8d32d4dfaea4497d3f76fbf760e299161048a91899089903390610ad3565b60405180910390a16000805490806104a183610b19565b9190505550505050505050565b6001602081905260009182526040909120805491810180546104cf9061096b565b80601f01602080910402602001604051908101604052809291908181526020018280546104fb9061096b565b80156105485780601f1061051d57610100808354040283529160200191610548565b820191906000526020600020905b81548152906001019060200180831161052b57829003601f168201915b50505050509080600201805461055d9061096b565b80601f01602080910402602001604051908101604052809291908181526020018280546105899061096b565b80156105d65780601f106105ab576101008083540402835291602001916105d6565b820191906000526020600020905b8154815290600101906020018083116105b957829003601f168201915b5050505050908060030180546105eb9061096b565b80601f01602080910402602001604051908101604052809291908181526020018280546106179061096b565b80156106645780601f1061063957610100808354040283529160200191610664565b820191906000526020600020905b81548152906001019060200180831161064757829003601f168201915b5050505060048301546005840154600685015460079095015493949193909250600160a060020a031688565b6000602082840312156106a257600080fd5b5035919050565b6000815180845260005b818110156106cf576020818501810151868301820152016106b3565b506000602082860101526020601f19601f83011685010191505092915050565b6020815281516020820152600060208301516101008060408501526107186101208501836106a9565b91506040850151601f198086850301606087015261073684836106a9565b935060608701519150808685030160808701525061075483826106a9565b925050608085015160a085015260a085015160c085015260c085015160e085015260e085015161078e82860182600160a060020a03169052565b5090949350505050565b7f4e487b7100000000000000000000000000000000000000000000000000000000600052604160045260246000fd5b600082601f8301126107d857600080fd5b813567ffffffffffffffff808211156107f3576107f3610798565b604051601f8301601f19908116603f0116810190828211818310171561081b5761081b610798565b8160405283815286602085880101111561083457600080fd5b836020870160208301376000602085830101528094505050505092915050565b60008060008060008060c0878903121561086d57600080fd5b863567ffffffffffffffff8082111561088557600080fd5b6108918a838b016107c7565b975060208901359150808211156108a757600080fd5b6108b38a838b016107c7565b965060408901359150808211156108c957600080fd5b506108d689828a016107c7565b945050606087013592506080870135915060a087013590509295509295509295565b60006101008a83528060208401526109128184018b6106a9565b90508281036040840152610926818a6106a9565b9050828103606084015261093a81896106a9565b9150508560808301528460a08301528360c0830152600160a060020a03831660e08301529998505050505050505050565b60028104600182168061097f57607f821691505b6020821081036109b8577f4e487b7100000000000000000000000000000000000000000000000000000000600052602260045260246000fd5b50919050565b601f821115610a08576000818152602081206020601f860104810160208610156109e55750805b6020601f860104820191505b81811015610a04578281556001016109f1565b5050505b505050565b815167ffffffffffffffff811115610a2757610a27610798565b610a3b81610a35845461096b565b846109be565b602080601f831160018114610a745760008415610a585750858301515b60028086026008870290910a6000190419821617865550610a04565b600085815260208120601f198616915b82811015610aa357888601518255948401946001909101908401610a84565b5085821015610ac357878501516008601f88160260020a60001904191681555b5050505050600202600101905550565b848152608060208201526000610aec60808301866106a9565b8281036040840152610afe81866106a9565b915050600160a060020a038316606083015295945050505050565b600060018201610b52577f4e487b7100000000000000000000000000000000000000000000000000000000600052601160045260246000fd5b506001019056fea26469706673582212201c65faa1fc5faccc3ba1b47eb089ada70caf18819e6d3b4f30e246164a15a6c364736f6c63430008150033",
  "immutableReferences": {},
  "source": "// SPDX-License-Identifier: MIT\r\npragma solidity ^0.8.20;\r\n\r\ncontract InsuranceManager {\r\n    uint public policyCounter;\r\n\r\n    struct Policy {\r\n        uint policyId;\r\n        string companyName;\r\n        string policyName;\r\n        string coverageInfo;\r\n        uint basePremium;\r\n        uint policyAmount;\r\n        uint policyTenure;\r\n        address insurer; // Address who created the policy\r\n    }\r\n\r\n    mapping(uint => Policy) public policies;\r\n\r\n    event PolicyCreated(\r\n        uint policyId,\r\n        string companyName,\r\n        string policyName,\r\n        address insurer\r\n    );\r\n\r\n    function createPolicy(\r\n        string memory _companyName,\r\n        string memory _policyName,\r\n        string memory _coverageInfo,\r\n        uint _basePremium,\r\n        uint _policyAmount,\r\n        uint _policyTenure\r\n    ) public {\r\n        policies[policyCounter] = Policy({\r\n            policyId: policyCounter,\r\n            companyName: _companyName,\r\n            policyName: _policyName,\r\n            coverageInfo: _coverageInfo,\r\n            basePremium: _basePremium,\r\n            policyAmount: _policyAmount,\r\n            policyTenure: _policyTenure,\r\n            insurer: msg.sender\r\n        });\r\n\r\n        emit PolicyCreated(policyCounter, _companyName, _policyName, msg.sender);\r\n        policyCounter++;\r\n    }\r\n\r\n    function getPolicy(uint _policyId) public view returns (Policy memory) {\r\n        return policies[_policyId];\r\n    }\r\n\r\n    function getPolicyCount() public view returns (uint) {\r\n        return policyCounter;\r\n    }\r\n}\r\n",
  "sourcePath": "D:\\projects\\blockChain\\supply-chain-management\\blockchain\\contracts\\InsuranceManager.sol",
  "compiler": {
    "name": "solc",
    "version": "0.8.21+commit.d9974bed.Emscripten.clang"
  },
  "schemaVersion": "3.4.16",
  "updatedAt": "2025-06-09T17:54:19.716Z",
  "networkType": "ethereum",
  "devdoc": {
    "kind": "dev",
    "methods": {},
    "version": 1
  },
  "userdoc": {
    "kind": "user",
    "methods": {},
    "version": 1
  }
}