{
  "contractName": "MedicineTransactionManager",
  "abi": [
    {
      "anonymous": false,
      "inputs": [
        {
          "indexed": false,
          "internalType": "uint256",
          "name": "orderId",
          "type": "uint256"
        }
      ],
      "name": "DealerConfirmed",
      "type": "event"
    },
    {
      "anonymous": false,
      "inputs": [
        {
          "indexed": false,
          "internalType": "uint256",
          "name": "orderId",
          "type": "uint256"
        }
      ],
      "name": "DealerDelivered",
      "type": "event"
    },
    {
      "anonymous": false,
      "inputs": [
        {
          "indexed": false,
          "internalType": "uint256",
          "name": "orderId",
          "type": "uint256"
        }
      ],
      "name": "ManufacturerShipped",
      "type": "event"
    },
    {
      "anonymous": false,
      "inputs": [
        {
          "indexed": false,
          "internalType": "uint256",
          "name": "orderId",
          "type": "uint256"
        },
        {
          "indexed": false,
          "internalType": "address",
          "name": "patient",
          "type": "address"
        },
        {
          "indexed": false,
          "internalType": "address",
          "name": "manufacturer",
          "type": "address"
        },
        {
          "indexed": false,
          "internalType": "address",
          "name": "hospital",
          "type": "address"
        },
        {
          "indexed": false,
          "internalType": "address",
          "name": "dealer",
          "type": "address"
        },
        {
          "indexed": false,
          "internalType": "uint256",
          "name": "price",
          "type": "uint256"
        }
      ],
      "name": "MedicineOrdered",
      "type": "event"
    },
    {
      "anonymous": false,
      "inputs": [
        {
          "indexed": false,
          "internalType": "uint256",
          "name": "orderId",
          "type": "uint256"
        }
      ],
      "name": "PatientReceived",
      "type": "event"
    },
    {
      "anonymous": false,
      "inputs": [
        {
          "indexed": false,
          "internalType": "uint256",
          "name": "orderId",
          "type": "uint256"
        },
        {
          "indexed": false,
          "internalType": "address",
          "name": "hospital",
          "type": "address"
        },
        {
          "indexed": false,
          "internalType": "uint256",
          "name": "hospitalShare",
          "type": "uint256"
        },
        {
          "indexed": false,
          "internalType": "address",
          "name": "dealer",
          "type": "address"
        },
        {
          "indexed": false,
          "internalType": "uint256",
          "name": "dealerShare",
          "type": "uint256"
        }
      ],
      "name": "PaymentReleased",
      "type": "event"
    },
    {
      "inputs": [],
      "name": "orderCounter",
      "outputs": [
        {
          "internalType": "uint256",
          "name": "",
          "type": "uint256"
        }
      ],
      "stateMutability": "view",
      "type": "function",
      "constant": true
    },
    {
      "inputs": [
        {
          "internalType": "uint256",
          "name": "",
          "type": "uint256"
        }
      ],
      "name": "orders",
      "outputs": [
        {
          "internalType": "uint256",
          "name": "id",
          "type": "uint256"
        },
        {
          "internalType": "address",
          "name": "patient",
          "type": "address"
        },
        {
          "internalType": "address",
          "name": "manufacturer",
          "type": "address"
        },
        {
          "internalType": "address",
          "name": "hospital",
          "type": "address"
        },
        {
          "internalType": "address",
          "name": "dealer",
          "type": "address"
        },
        {
          "internalType": "uint256",
          "name": "price",
          "type": "uint256"
        },
        {
          "internalType": "uint256",
          "name": "hospitalShare",
          "type": "uint256"
        },
        {
          "internalType": "uint256",
          "name": "dealerShare",
          "type": "uint256"
        },
        {
          "internalType": "enum MedicineTransactionManager.OrderStatus",
          "name": "status",
          "type": "uint8"
        }
      ],
      "stateMutability": "view",
      "type": "function",
      "constant": true
    },
    {
      "inputs": [
        {
          "internalType": "address",
          "name": "manufacturer",
          "type": "address"
        },
        {
          "internalType": "address",
          "name": "hospital",
          "type": "address"
        },
        {
          "internalType": "address",
          "name": "dealer",
          "type": "address"
        },
        {
          "internalType": "uint256",
          "name": "hospitalShare",
          "type": "uint256"
        },
        {
          "internalType": "uint256",
          "name": "dealerShare",
          "type": "uint256"
        }
      ],
      "name": "createOrder",
      "outputs": [
        {
          "internalType": "uint256",
          "name": "",
          "type": "uint256"
        }
      ],
      "stateMutability": "payable",
      "type": "function",
      "payable": true
    },
    {
      "inputs": [
        {
          "internalType": "uint256",
          "name": "orderId",
          "type": "uint256"
        }
      ],
      "name": "dealerConfirmed",
      "outputs": [],
      "stateMutability": "nonpayable",
      "type": "function"
    },
    {
      "inputs": [
        {
          "internalType": "uint256",
          "name": "orderId",
          "type": "uint256"
        }
      ],
      "name": "manufacturerShipped",
      "outputs": [],
      "stateMutability": "nonpayable",
      "type": "function"
    },
    {
      "inputs": [
        {
          "internalType": "uint256",
          "name": "orderId",
          "type": "uint256"
        }
      ],
      "name": "dealerDelivered",
      "outputs": [],
      "stateMutability": "nonpayable",
      "type": "function"
    },
    {
      "inputs": [
        {
          "internalType": "uint256",
          "name": "orderId",
          "type": "uint256"
        }
      ],
      "name": "patientReceived",
      "outputs": [],
      "stateMutability": "nonpayable",
      "type": "function"
    },
    {
      "inputs": [
        {
          "internalType": "uint256",
          "name": "orderId",
          "type": "uint256"
        }
      ],
      "name": "getOrderStatus",
      "outputs": [
        {
          "internalType": "enum MedicineTransactionManager.OrderStatus",
          "name": "",
          "type": "uint8"
        }
      ],
      "stateMutability": "view",
      "type": "function",
      "constant": true
    }
  ],
  "bytecode": "0x608060405234801561001057600080fd5b50610a87806100206000396000f3fe608060405260043610610098576000357c0100000000000000000000000000000000000000000000000000000000900480638ade14fd1161006b5780638ade14fd14610145578063a85c38ef14610165578063b789bf52146101f3578063d1dc59a61461020957600080fd5b8063150039501461009d5780631a8596d5146100bf57806342a9cc61146100e557806345fa8aae14610105575b600080fd5b3480156100a957600080fd5b506100bd6100b8366004610844565b610229565b005b6100d26100cd366004610879565b6102ce565b6040519081526020015b60405180910390f35b3480156100f157600080fd5b506100bd610100366004610844565b61050d565b34801561011157600080fd5b50610138610120366004610844565b60009081526001602052604090206008015460ff1690565b6040516100dc9190610938565b34801561015157600080fd5b506100bd610160366004610844565b6105a2565b34801561017157600080fd5b506101de610180366004610844565b6001602081905260009182526040909120805491810154600282015460038301546004840154600585015460068601546007870154600890970154600160a060020a0396871697958716969485169593909416939192909160ff1689565b6040516100dc9998979695949392919061094c565b3480156101ff57600080fd5b506100d260005481565b34801561021557600080fd5b506100bd610224366004610844565b6107b0565b600160008281526001602052604090206008015460ff166005811115610251576102516108ce565b1461027a5760405160e560020a62461bcd028152600401610271906109ac565b60405180910390fd5b600081815260016020908152604091829020600801805460ff1916600217905590518281527fec41dc27ebed036f9f7c8ea6b81a6804e4b8415b942eca1d1e2c8b4ada99f52991015b60405180910390a150565b6000806102db8385610a12565b905080341461032f5760405160e560020a62461bcd02815260206004820152601260248201527f496e636f7272656374204554482073656e7400000000000000000000000000006044820152606401610271565b604051806101200160405280600054815260200133600160a060020a0316815260200188600160a060020a0316815260200187600160a060020a0316815260200186600160a060020a03168152602001828152602001858152602001848152602001600060058111156103a4576103a46108ce565b9052600080548152600160208181526040928390208451815590840151818301805473ffffffffffffffffffffffffffffffffffffffff19908116600160a060020a039384161790915593850151600283018054861691831691909117905560608501516003830180548616918316919091179055608085015160048301805490951691161790925560a083015160058084019190915560c0840151600684015560e084015160078401556101008401516008840180549193909260ff19909216918490811115610477576104776108ce565b02179055505060005460408051918252336020830152600160a060020a038a81168383015289811660608401528816608083015260a08201849052517f1e7f4293803c556ea14f7be8e0354865732d0cafd2222be1ecba57f5285c256c92509081900360c00190a16000805490806104ee83610a25565b919050555060016000546105029190610a3e565b979650505050505050565b600260008281526001602052604090206008015460ff166005811115610535576105356108ce565b146105555760405160e560020a62461bcd028152600401610271906109ac565b600081815260016020908152604091829020600801805460ff1916600317905590518281527fc765290e0cceb0441f0eb04db0d7194b022a3c76cee23921f8bf51d1f5da614291016102c3565b600081815260016020819052604090912090810154600160a060020a031633146106115760405160e560020a62461bcd02815260206004820152600e60248201527f4e6f7420796f7572206f726465720000000000000000000000000000000000006044820152606401610271565b6003600882015460ff16600581111561062c5761062c6108ce565b1461067c5760405160e560020a62461bcd02815260206004820152601360248201527f4e6f74207965742064656c6976657261626c65000000000000000000000000006044820152606401610271565b60088101805460ff1916600517905560038101546006820154604051600160a060020a03909216916108fc82150291906000818181858888f193505050501580156106cb573d6000803e3d6000fd5b5060048101546007820154604051600160a060020a039092169181156108fc0291906000818181858888f1935050505015801561070c573d6000803e3d6000fd5b506040518281527fa036b2b8d457711eb1b4db5d110c93556ee3890efb0b61fb785e9253d9b7f8819060200160405180910390a1600381015460068201546004830154600784015460408051878152600160a060020a03958616602082015280820194909452939091166060830152608082015290517f440bc4d8f5b2a041336dc96d32da9ad6afc4318aedf2f72b0756cf312e5239c39181900360a00190a15050565b60008181526001602052604081206008015460ff1660058111156107d6576107d66108ce565b146107f65760405160e560020a62461bcd028152600401610271906109ac565b600081815260016020818152604092839020600801805460ff191690921790915590518281527fefa9ec064d2f5bb27922bb5ce753b3918a8039eca12edd98b365e0c1585cc8b391016102c3565b60006020828403121561085657600080fd5b5035919050565b8035600160a060020a038116811461087457600080fd5b919050565b600080600080600060a0868803121561089157600080fd5b61089a8661085d565b94506108a86020870161085d565b93506108b66040870161085d565b94979396509394606081013594506080013592915050565b7f4e487b7100000000000000000000000000000000000000000000000000000000600052602160045260246000fd5b60068110610934577f4e487b7100000000000000000000000000000000000000000000000000000000600052602160045260246000fd5b9052565b6020810161094682846108fd565b92915050565b898152600160a060020a038981166020830152888116604083015287811660608301528616608082015260a0810185905260c0810184905260e08101839052610120810161099e6101008301846108fd565b9a9950505050505050505050565b6020808252600d908201527f496e76616c696420737461746500000000000000000000000000000000000000604082015260600190565b7f4e487b7100000000000000000000000000000000000000000000000000000000600052601160045260246000fd5b80820180821115610946576109466109e3565b600060018201610a3757610a376109e3565b5060010190565b81810381811115610946576109466109e356fea2646970667358221220f1302600272dc52477dcc26536650cfc5048d60f66dc687a35d360483f3c2d9b64736f6c63430008150033",
  "immutableReferences": {},
  "source": "// SPDX-License-Identifier: MIT\r\npragma solidity ^0.8.20;\r\n\r\ncontract MedicineTransactionManager {\r\n    enum OrderStatus {\r\n        Ordered,\r\n        DealerPurchased,\r\n        ShippedByManufacturer,\r\n        DeliveredToDealer,\r\n        DeliveredToPatient,\r\n        Completed\r\n    }\r\n\r\n    struct MedicineOrder {\r\n        uint id;\r\n        address patient;\r\n        address manufacturer;\r\n        address hospital;\r\n        address dealer;\r\n        uint price;\r\n        uint hospitalShare;\r\n        uint dealerShare;\r\n        OrderStatus status;\r\n    }\r\n\r\n    uint public orderCounter;\r\n    mapping(uint => MedicineOrder) public orders;\r\n\r\n    event MedicineOrdered(\r\n        uint orderId,\r\n        address patient,\r\n        address manufacturer,\r\n        address hospital,\r\n        address dealer,\r\n        uint price\r\n    );\r\n    event DealerConfirmed(uint orderId);\r\n    event ManufacturerShipped(uint orderId);\r\n    event DealerDelivered(uint orderId);\r\n    event PatientReceived(uint orderId);\r\n    event PaymentReleased(uint orderId, address hospital, uint hospitalShare, address dealer, uint dealerShare);\r\n\r\n    function createOrder(\r\n        address manufacturer,\r\n        address hospital,\r\n        address dealer,\r\n        uint hospitalShare,\r\n        uint dealerShare\r\n    ) public payable returns (uint) {\r\n        uint price = hospitalShare + dealerShare;\r\n        require(msg.value == price, \"Incorrect ETH sent\");\r\n\r\n        orders[orderCounter] = MedicineOrder({\r\n            id: orderCounter,\r\n            patient: msg.sender,\r\n            manufacturer: manufacturer,\r\n            hospital: hospital,\r\n            dealer: dealer,\r\n            price: price,\r\n            hospitalShare: hospitalShare,\r\n            dealerShare: dealerShare,\r\n            status: OrderStatus.Ordered\r\n        });\r\n\r\n        emit MedicineOrdered(orderCounter, msg.sender, manufacturer, hospital, dealer, price);\r\n        orderCounter++;\r\n        return orderCounter - 1;\r\n    }\r\n\r\n    function dealerConfirmed(uint orderId) public {\r\n        require(orders[orderId].status == OrderStatus.Ordered, \"Invalid state\");\r\n        orders[orderId].status = OrderStatus.DealerPurchased;\r\n        emit DealerConfirmed(orderId);\r\n    }\r\n\r\n    function manufacturerShipped(uint orderId) public {\r\n        require(orders[orderId].status == OrderStatus.DealerPurchased, \"Invalid state\");\r\n        orders[orderId].status = OrderStatus.ShippedByManufacturer;\r\n        emit ManufacturerShipped(orderId);\r\n    }\r\n\r\n    function dealerDelivered(uint orderId) public {\r\n        require(orders[orderId].status == OrderStatus.ShippedByManufacturer, \"Invalid state\");\r\n        orders[orderId].status = OrderStatus.DeliveredToDealer;\r\n        emit DealerDelivered(orderId);\r\n    }\r\n\r\n    function patientReceived(uint orderId) public {\r\n        MedicineOrder storage order = orders[orderId];\r\n        require(msg.sender == order.patient, \"Not your order\");\r\n        require(order.status == OrderStatus.DeliveredToDealer, \"Not yet deliverable\");\r\n\r\n        order.status = OrderStatus.Completed;\r\n\r\n        payable(order.hospital).transfer(order.hospitalShare);\r\n        payable(order.dealer).transfer(order.dealerShare);\r\n\r\n        emit PatientReceived(orderId);\r\n        emit PaymentReleased(orderId, order.hospital, order.hospitalShare, order.dealer, order.dealerShare);\r\n    }\r\n\r\n    function getOrderStatus(uint orderId) public view returns (OrderStatus) {\r\n        return orders[orderId].status;\r\n    }\r\n}\r\n",
  "sourcePath": "C:\\Users\\HP\\OneDrive\\Desktop\\supply-chain-management\\blockchain\\contracts\\MedicineTransactionManager.sol",
  "compiler": {
    "name": "solc",
    "version": "0.8.21+commit.d9974bed.Emscripten.clang"
  },
  "schemaVersion": "3.4.16",
  "updatedAt": "2025-06-09T10:20:08.547Z",
  "networkType": "ethereum",
  "devdoc": {
    "kind": "dev",
    "methods": {},
    "version": 1
  },
  "userdoc": {
    "kind": "user",
    "methods": {},
    "version": 1
  }
}