{
  "contractName": "MedicineTransactionManager",
  "abi": [
    {
      "anonymous": false,
      "inputs": [
        {
          "indexed": true,
          "internalType": "uint256",
          "name": "onChainOrderId",
          "type": "uint256"
        }
      ],
      "name": "DealerConfirmed",
      "type": "event"
    },
    {
      "anonymous": false,
      "inputs": [
        {
          "indexed": true,
          "internalType": "uint256",
          "name": "orderId",
          "type": "uint256"
        }
      ],
      "name": "DealerDelivered",
      "type": "event"
    },
    {
      "anonymous": false,
      "inputs": [
        {
          "indexed": true,
          "internalType": "uint256",
          "name": "orderId",
          "type": "uint256"
        }
      ],
      "name": "ManufacturerShipped",
      "type": "event"
    },
    {
      "anonymous": false,
      "inputs": [
        {
          "indexed": true,
          "internalType": "uint256",
          "name": "orderId",
          "type": "uint256"
        },
        {
          "indexed": false,
          "internalType": "address",
          "name": "patient",
          "type": "address"
        },
        {
          "indexed": false,
          "internalType": "address",
          "name": "manufacturer",
          "type": "address"
        },
        {
          "indexed": false,
          "internalType": "address",
          "name": "hospital",
          "type": "address"
        },
        {
          "indexed": false,
          "internalType": "address",
          "name": "dealer",
          "type": "address"
        },
        {
          "indexed": false,
          "internalType": "uint256",
          "name": "price",
          "type": "uint256"
        }
      ],
      "name": "MedicineOrdered",
      "type": "event"
    },
    {
      "anonymous": false,
      "inputs": [
        {
          "indexed": true,
          "internalType": "uint256",
          "name": "orderId",
          "type": "uint256"
        },
        {
          "indexed": true,
          "internalType": "address",
          "name": "manufacturer",
          "type": "address"
        },
        {
          "indexed": true,
          "internalType": "address",
          "name": "hospital",
          "type": "address"
        },
        {
          "indexed": false,
          "internalType": "address",
          "name": "dealer",
          "type": "address"
        }
      ],
      "name": "OrderCreated",
      "type": "event"
    },
    {
      "anonymous": false,
      "inputs": [
        {
          "indexed": true,
          "internalType": "uint256",
          "name": "orderId",
          "type": "uint256"
        }
      ],
      "name": "PatientReceived",
      "type": "event"
    },
    {
      "anonymous": false,
      "inputs": [
        {
          "indexed": true,
          "internalType": "uint256",
          "name": "orderId",
          "type": "uint256"
        },
        {
          "indexed": false,
          "internalType": "address",
          "name": "hospital",
          "type": "address"
        },
        {
          "indexed": false,
          "internalType": "uint256",
          "name": "hospitalShare",
          "type": "uint256"
        },
        {
          "indexed": false,
          "internalType": "address",
          "name": "dealer",
          "type": "address"
        },
        {
          "indexed": false,
          "internalType": "uint256",
          "name": "dealerShare",
          "type": "uint256"
        }
      ],
      "name": "PaymentReleased",
      "type": "event"
    },
    {
      "inputs": [],
      "name": "orderCounter",
      "outputs": [
        {
          "internalType": "uint256",
          "name": "",
          "type": "uint256"
        }
      ],
      "stateMutability": "view",
      "type": "function",
      "constant": true
    },
    {
      "inputs": [
        {
          "internalType": "uint256",
          "name": "",
          "type": "uint256"
        }
      ],
      "name": "orders",
      "outputs": [
        {
          "internalType": "uint256",
          "name": "id",
          "type": "uint256"
        },
        {
          "internalType": "address",
          "name": "patient",
          "type": "address"
        },
        {
          "internalType": "address",
          "name": "manufacturer",
          "type": "address"
        },
        {
          "internalType": "address",
          "name": "hospital",
          "type": "address"
        },
        {
          "internalType": "address",
          "name": "dealer",
          "type": "address"
        },
        {
          "internalType": "uint256",
          "name": "price",
          "type": "uint256"
        },
        {
          "internalType": "uint256",
          "name": "hospitalShare",
          "type": "uint256"
        },
        {
          "internalType": "uint256",
          "name": "dealerShare",
          "type": "uint256"
        },
        {
          "internalType": "enum MedicineTransactionManager.OrderStatus",
          "name": "status",
          "type": "uint8"
        }
      ],
      "stateMutability": "view",
      "type": "function",
      "constant": true
    },
    {
      "inputs": [
        {
          "internalType": "address",
          "name": "manufacturer",
          "type": "address"
        },
        {
          "internalType": "address",
          "name": "hospital",
          "type": "address"
        },
        {
          "internalType": "address",
          "name": "dealer",
          "type": "address"
        },
        {
          "internalType": "uint256",
          "name": "hospitalShare",
          "type": "uint256"
        },
        {
          "internalType": "uint256",
          "name": "dealerShare",
          "type": "uint256"
        }
      ],
      "name": "createOrder",
      "outputs": [
        {
          "internalType": "uint256",
          "name": "",
          "type": "uint256"
        }
      ],
      "stateMutability": "payable",
      "type": "function",
      "payable": true
    },
    {
      "inputs": [
        {
          "internalType": "uint256",
          "name": "orderId",
          "type": "uint256"
        }
      ],
      "name": "dealerConfirmed",
      "outputs": [],
      "stateMutability": "nonpayable",
      "type": "function"
    },
    {
      "inputs": [
        {
          "internalType": "uint256",
          "name": "orderId",
          "type": "uint256"
        }
      ],
      "name": "manufacturerShipped",
      "outputs": [],
      "stateMutability": "nonpayable",
      "type": "function"
    },
    {
      "inputs": [
        {
          "internalType": "uint256",
          "name": "orderId",
          "type": "uint256"
        }
      ],
      "name": "dealerDelivered",
      "outputs": [],
      "stateMutability": "nonpayable",
      "type": "function"
    },
    {
      "inputs": [
        {
          "internalType": "uint256",
          "name": "orderId",
          "type": "uint256"
        }
      ],
      "name": "patientReceived",
      "outputs": [],
      "stateMutability": "nonpayable",
      "type": "function"
    },
    {
      "inputs": [
        {
          "internalType": "uint256",
          "name": "orderId",
          "type": "uint256"
        }
      ],
      "name": "getOrderStatus",
      "outputs": [
        {
          "internalType": "enum MedicineTransactionManager.OrderStatus",
          "name": "",
          "type": "uint8"
        }
      ],
      "stateMutability": "view",
      "type": "function",
      "constant": true
    }
  ],
  "bytecode": "0x608060405234801561001057600080fd5b50610d11806100206000396000f3fe608060405260043610610098576000357c0100000000000000000000000000000000000000000000000000000000900480638ade14fd1161006b5780638ade14fd14610145578063a85c38ef14610165578063b789bf52146101f3578063d1dc59a61461020957600080fd5b8063150039501461009d5780631a8596d5146100bf57806342a9cc61146100e557806345fa8aae14610105575b600080fd5b3480156100a957600080fd5b506100bd6100b8366004610b05565b610229565b005b6100d26100cd366004610b3a565b6102ec565b6040519081526020015b60405180910390f35b3480156100f157600080fd5b506100bd610100366004610b05565b61069f565b34801561011157600080fd5b50610138610120366004610b05565b60009081526001602052604090206008015460ff1690565b6040516100dc9190610bf9565b34801561015157600080fd5b506100bd610160366004610b05565b61075d565b34801561017157600080fd5b506101de610180366004610b05565b6001602081905260009182526040909120805491810154600282015460038301546004840154600585015460068601546007870154600890970154600160a060020a0396871697958716969485169593909416939192909160ff1689565b6040516100dc99989796959493929190610c0d565b3480156101ff57600080fd5b506100d260005481565b34801561021557600080fd5b506100bd610224366004610b05565b610960565b600160008281526001602052604090206008015460ff16600581111561025157610251610b8f565b146102a65760405160e560020a62461bcd02815260206004820152600d60248201527f496e76616c69642073746174650000000000000000000000000000000000000060448201526064015b60405180910390fd5b600081815260016020526040808220600801805460ff191660021790555182917fec41dc27ebed036f9f7c8ea6b81a6804e4b8415b942eca1d1e2c8b4ada99f52991a250565b6000600160a060020a03861661036d5760405160e560020a62461bcd02815260206004820152602360248201527f4d616e75666163747572657220616464726573732063616e6e6f74206265207a60448201527f65726f0000000000000000000000000000000000000000000000000000000000606482015260840161029d565b600160a060020a0385166103c65760405160e560020a62461bcd02815260206004820152601f60248201527f486f73706974616c20616464726573732063616e6e6f74206265207a65726f00604482015260640161029d565b600160a060020a03841661041f5760405160e560020a62461bcd02815260206004820152601d60248201527f4465616c657220616464726573732063616e6e6f74206265207a65726f000000604482015260640161029d565b600061042b8385610c9c565b905080341461047f5760405160e560020a62461bcd02815260206004820152601260248201527f496e636f7272656374204554482073656e740000000000000000000000000000604482015260640161029d565b604051806101200160405280600054815260200133600160a060020a0316815260200188600160a060020a0316815260200187600160a060020a0316815260200186600160a060020a03168152602001828152602001858152602001848152602001600060058111156104f4576104f4610b8f565b9052600080548152600160208181526040928390208451815590840151818301805473ffffffffffffffffffffffffffffffffffffffff19908116600160a060020a039384161790915593850151600283018054861691831691909117905560608501516003830180548616918316919091179055608085015160048301805490951691161790925560a083015160058084019190915560c0840151600684015560e084015160078401556101008401516008840180549193909260ff199092169184908111156105c7576105c7610b8f565b021790555050600054604051600160a060020a038881168252808a1693508a1691907f2c3ffcf5ffd176911ddab8c33354b6b2e2b76c269b75c59f7e307470f7ead6d19060200160405180910390a460005460408051338152600160a060020a038a8116602083015289811682840152881660608201526080810184905290517f1e7f4293803c556ea14f7be8e0354865732d0cafd2222be1ecba57f5285c256c9181900360a00190a260008054908061068083610caf565b919050555060016000546106949190610cc8565b979650505050505050565b600260008281526001602052604090206008015460ff1660058111156106c7576106c7610b8f565b146107175760405160e560020a62461bcd02815260206004820152600d60248201527f496e76616c696420737461746500000000000000000000000000000000000000604482015260640161029d565b600081815260016020526040808220600801805460ff191660031790555182917fc765290e0cceb0441f0eb04db0d7194b022a3c76cee23921f8bf51d1f5da614291a250565b600081815260016020819052604090912090810154600160a060020a031633146107cc5760405160e560020a62461bcd02815260206004820152600e60248201527f4e6f7420796f7572206f72646572000000000000000000000000000000000000604482015260640161029d565b6003600882015460ff1660058111156107e7576107e7610b8f565b146108375760405160e560020a62461bcd02815260206004820152601360248201527f4e6f74207965742064656c6976657261626c6500000000000000000000000000604482015260640161029d565b60088101805460ff1916600517905560038101546006820154604051600160a060020a03909216916108fc82150291906000818181858888f19350505050158015610886573d6000803e3d6000fd5b5060048101546007820154604051600160a060020a039092169181156108fc0291906000818181858888f193505050501580156108c7573d6000803e3d6000fd5b5060405182907fa036b2b8d457711eb1b4db5d110c93556ee3890efb0b61fb785e9253d9b7f88190600090a2600381015460068201546004830154600784015460408051600160a060020a039586168152602081019490945293909116828401526060820152905183917f440bc4d8f5b2a041336dc96d32da9ad6afc4318aedf2f72b0756cf312e5239c3919081900360800190a25050565b60005481106109b45760405160e560020a62461bcd02815260206004820152601760248201527f4f7264657220494420646f6573206e6f74206578697374000000000000000000604482015260640161029d565b60008181526001602052604081206008015460ff1660058111156109da576109da610b8f565b14610a2a5760405160e560020a62461bcd02815260206004820152601f60248201527f4f72646572206973206e6f7420696e20274f7264657265642720737461746500604482015260640161029d565b600081815260016020526040902060040154600160a060020a03163314610abc5760405160e560020a62461bcd02815260206004820152602160248201527f43616c6c6572206973206e6f74207468652061737369676e6564206465616c6560448201527f7200000000000000000000000000000000000000000000000000000000000000606482015260840161029d565b6000818152600160208190526040808320600801805460ff19169092179091555182917fefa9ec064d2f5bb27922bb5ce753b3918a8039eca12edd98b365e0c1585cc8b391a250565b600060208284031215610b1757600080fd5b5035919050565b8035600160a060020a0381168114610b3557600080fd5b919050565b600080600080600060a08688031215610b5257600080fd5b610b5b86610b1e565b9450610b6960208701610b1e565b9350610b7760408701610b1e565b94979396509394606081013594506080013592915050565b7f4e487b7100000000000000000000000000000000000000000000000000000000600052602160045260246000fd5b60068110610bf5577f4e487b7100000000000000000000000000000000000000000000000000000000600052602160045260246000fd5b9052565b60208101610c078284610bbe565b92915050565b898152600160a060020a038981166020830152888116604083015287811660608301528616608082015260a0810185905260c0810184905260e081018390526101208101610c5f610100830184610bbe565b9a9950505050505050505050565b7f4e487b7100000000000000000000000000000000000000000000000000000000600052601160045260246000fd5b80820180821115610c0757610c07610c6d565b600060018201610cc157610cc1610c6d565b5060010190565b81810381811115610c0757610c07610c6d56fea2646970667358221220ee637e936adabe3365de4b428c3489aa9422880f118801717ca1187a0661f93964736f6c63430008150033",
  "immutableReferences": {},
  "source": "// SPDX-License-Identifier: MIT\r\npragma solidity ^0.8.20;\r\n\r\ncontract MedicineTransactionManager {\r\n    enum OrderStatus {\r\n        Ordered,\r\n        DealerPurchased,\r\n        ShippedByManufacturer,\r\n        DeliveredToDealer,\r\n        DeliveredToPatient,\r\n        Completed\r\n    }\r\n\r\n    struct MedicineOrder {\r\n        uint id;\r\n        address patient;\r\n        address manufacturer;\r\n        address hospital;\r\n        address dealer;\r\n        uint price;\r\n        uint hospitalShare;\r\n        uint dealerShare;\r\n        OrderStatus status;\r\n    }\r\n\r\n    uint public orderCounter;\r\n    mapping(uint => MedicineOrder) public orders;\r\n\r\n    event OrderCreated(\r\n        uint indexed orderId,\r\n        address indexed manufacturer,\r\n        address indexed hospital,\r\n        address dealer\r\n    );\r\n\r\n    event MedicineOrdered(\r\n        uint indexed orderId,\r\n        address patient,\r\n        address manufacturer,\r\n        address hospital,\r\n        address dealer,\r\n        uint price\r\n    );\r\n\r\n    event DealerConfirmed(uint indexed onChainOrderId);\r\n    event ManufacturerShipped(uint indexed orderId);\r\n    event DealerDelivered(uint indexed orderId);\r\n    event PatientReceived(uint indexed orderId);\r\n    event PaymentReleased(\r\n        uint indexed orderId,\r\n        address hospital,\r\n        uint hospitalShare,\r\n        address dealer,\r\n        uint dealerShare\r\n    );\r\n\r\n    function createOrder(\r\n        address manufacturer,\r\n        address hospital,\r\n        address dealer,\r\n        uint hospitalShare,\r\n        uint dealerShare\r\n    ) public payable returns (uint) {\r\n        require(manufacturer != address(0), \"Manufacturer address cannot be zero\");\r\n        require(hospital != address(0), \"Hospital address cannot be zero\");\r\n        require(dealer != address(0), \"Dealer address cannot be zero\");\r\n\r\n        uint price = hospitalShare + dealerShare;\r\n        require(msg.value == price, \"Incorrect ETH sent\");\r\n\r\n        orders[orderCounter] = MedicineOrder({\r\n            id: orderCounter,\r\n            patient: msg.sender,\r\n            manufacturer: manufacturer,\r\n            hospital: hospital,\r\n            dealer: dealer,\r\n            price: price,\r\n            hospitalShare: hospitalShare,\r\n            dealerShare: dealerShare,\r\n            status: OrderStatus.Ordered\r\n        });\r\n\r\n        emit OrderCreated(orderCounter, manufacturer, hospital, dealer);\r\n\r\n        emit MedicineOrdered(orderCounter, msg.sender, manufacturer, hospital, dealer, price);\r\n\r\n        orderCounter++;\r\n        return orderCounter - 1;\r\n    }\r\n\r\n    function dealerConfirmed(uint orderId) public {\r\n        require(orderId < orderCounter, \"Order ID does not exist\");\r\n        require(orders[orderId].status == OrderStatus.Ordered, \"Order is not in 'Ordered' state\");\r\n        require(msg.sender == orders[orderId].dealer, \"Caller is not the assigned dealer\");\r\n        orders[orderId].status = OrderStatus.DealerPurchased;\r\n        emit DealerConfirmed(orderId);\r\n    }\r\n\r\n    function manufacturerShipped(uint orderId) public {\r\n        require(orders[orderId].status == OrderStatus.DealerPurchased, \"Invalid state\");\r\n        orders[orderId].status = OrderStatus.ShippedByManufacturer;\r\n        emit ManufacturerShipped(orderId);\r\n    }\r\n\r\n    function dealerDelivered(uint orderId) public {\r\n        require(orders[orderId].status == OrderStatus.ShippedByManufacturer, \"Invalid state\");\r\n        orders[orderId].status = OrderStatus.DeliveredToDealer;\r\n        emit DealerDelivered(orderId);\r\n    }\r\n\r\n    function patientReceived(uint orderId) public {\r\n        MedicineOrder storage order = orders[orderId];\r\n        require(msg.sender == order.patient, \"Not your order\");\r\n        require(order.status == OrderStatus.DeliveredToDealer, \"Not yet deliverable\");\r\n\r\n        order.status = OrderStatus.Completed;\r\n\r\n        payable(order.hospital).transfer(order.hospitalShare);\r\n        payable(order.dealer).transfer(order.dealerShare);\r\n\r\n        emit PatientReceived(orderId);\r\n        emit PaymentReleased(orderId, order.hospital, order.hospitalShare, order.dealer, order.dealerShare);\r\n    }\r\n\r\n    function getOrderStatus(uint orderId) public view returns (OrderStatus) {\r\n        return orders[orderId].status;\r\n    }\r\n}\r\n",
  "sourcePath": "C:\\Users\\HP\\OneDrive\\Desktop\\supply-chain-management\\blockchain\\contracts\\MedicineTransactionManager.sol",
  "compiler": {
    "name": "solc",
    "version": "0.8.21+commit.d9974bed.Emscripten.clang"
  },
  "schemaVersion": "3.4.16",
  "updatedAt": "2025-06-09T20:10:26.847Z",
  "networkType": "ethereum",
  "devdoc": {
    "kind": "dev",
    "methods": {},
    "version": 1
  },
  "userdoc": {
    "kind": "user",
    "methods": {},
    "version": 1
  }
}