{
  "contractName": "PatientPolicy",
  "abi": [
    {
      "inputs": [
        {
          "internalType": "address",
          "name": "_insuranceManagerAddress",
          "type": "address"
        }
      ],
      "stateMutability": "nonpayable",
      "type": "constructor"
    },
    {
      "anonymous": false,
      "inputs": [
        {
          "indexed": true,
          "internalType": "address",
          "name": "patient",
          "type": "address"
        },
        {
          "indexed": true,
          "internalType": "uint256",
          "name": "policyId",
          "type": "uint256"
        }
      ],
      "name": "PolicyPurchased",
      "type": "event"
    },
    {
      "inputs": [],
      "name": "insuranceManager",
      "outputs": [
        {
          "internalType": "contract InsuranceManager",
          "name": "",
          "type": "address"
        }
      ],
      "stateMutability": "view",
      "type": "function",
      "constant": true
    },
    {
      "inputs": [
        {
          "internalType": "address",
          "name": "",
          "type": "address"
        },
        {
          "internalType": "uint256",
          "name": "",
          "type": "uint256"
        }
      ],
      "name": "purchasedPolicies",
      "outputs": [
        {
          "internalType": "uint256",
          "name": "",
          "type": "uint256"
        }
      ],
      "stateMutability": "view",
      "type": "function",
      "constant": true
    },
    {
      "inputs": [
        {
          "internalType": "uint256",
          "name": "_policyId",
          "type": "uint256"
        }
      ],
      "name": "purchasePolicy",
      "outputs": [],
      "stateMutability": "payable",
      "type": "function",
      "payable": true
    },
    {
      "inputs": [
        {
          "internalType": "address",
          "name": "_user",
          "type": "address"
        }
      ],
      "name": "getMyPolicies",
      "outputs": [
        {
          "internalType": "uint256[]",
          "name": "",
          "type": "uint256[]"
        }
      ],
      "stateMutability": "view",
      "type": "function",
      "constant": true
    }
  ],
  "bytecode": "0x608060405234801561001057600080fd5b506040516106d83803806106d883398101604081905261002f91610054565b60008054600160a060020a031916600160a060020a0392909216919091179055610084565b60006020828403121561006657600080fd5b8151600160a060020a038116811461007d57600080fd5b9392505050565b610645806100936000396000f3fe60806040526004361061005b577c01000000000000000000000000000000000000000000000000000000006000350463753a6be38114610060578063c1260c9a14610096578063e9298a64146100ab578063f3523fa4146100d9575b600080fd5b34801561006c57600080fd5b5061008061007b366004610354565b61012b565b60405161008d9190610378565b60405180910390f35b6100a96100a43660046103bc565b6101a4565b005b3480156100b757600080fd5b506100cb6100c63660046103d5565b6102fe565b60405190815260200161008d565b3480156100e557600080fd5b506000546101069073ffffffffffffffffffffffffffffffffffffffff1681565b60405173ffffffffffffffffffffffffffffffffffffffff909116815260200161008d565b73ffffffffffffffffffffffffffffffffffffffff811660009081526001602090815260409182902080548351818402810184019094528084526060939283018282801561019857602002820191906000526020600020905b815481526020019060010190808311610184575b50505050509050919050565b600080546040517f2b07fce30000000000000000000000000000000000000000000000000000000081526004810184905273ffffffffffffffffffffffffffffffffffffffff90911690632b07fce390602401600060405180830381865afa158015610214573d6000803e3d6000fd5b505050506040513d6000823e601f3d908101601f1916820160405261023c9190810190610520565b9050806080015134146102af576040517f08c379a000000000000000000000000000000000000000000000000000000000815260206004820152601660248201527f496e636f7272656374207072656d69756d2073656e7400000000000000000000604482015260640160405180910390fd5b336000818152600160208181526040808420805493840181558452908320909101859055518492917f1ec6ca237cf412015f109db027dc71b2292a20387279781fd699c4ec328a23d791a35050565b6001602052816000526040600020818154811061031a57600080fd5b90600052602060002001600091509150505481565b73ffffffffffffffffffffffffffffffffffffffff8116811461035157600080fd5b50565b60006020828403121561036657600080fd5b81356103718161032f565b9392505050565b6020808252825182820181905260009190848201906040850190845b818110156103b057835183529284019291840191600101610394565b50909695505050505050565b6000602082840312156103ce57600080fd5b5035919050565b600080604083850312156103e857600080fd5b82356103f38161032f565b946020939093013593505050565b7f4e487b7100000000000000000000000000000000000000000000000000000000600052604160045260246000fd5b604051610100810167ffffffffffffffff8111828210171561045457610454610401565b60405290565b604051601f8201601f1916810167ffffffffffffffff8111828210171561048357610483610401565b604052919050565b600082601f83011261049c57600080fd5b815167ffffffffffffffff8111156104b6576104b6610401565b60206104ca601f8301601f1916820161045a565b82815285828487010111156104de57600080fd5b60005b838110156104fc5785810183015182820184015282016104e1565b506000928101909101919091529392505050565b805161051b8161032f565b919050565b60006020828403121561053257600080fd5b815167ffffffffffffffff8082111561054a57600080fd5b90830190610100828603121561055f57600080fd5b610567610430565b8251815260208301518281111561057d57600080fd5b6105898782860161048b565b6020830152506040830151828111156105a157600080fd5b6105ad8782860161048b565b6040830152506060830151828111156105c557600080fd5b6105d18782860161048b565b6060830152506080830151608082015260a083015160a082015260c083015160c082015261060160e08401610510565b60e08201529594505050505056fea264697066735822122073eb4c267fa0c000251ec5c86e4cfee906d79cabcb726d68b89edb52b628c67d64736f6c63430008150033",
  "immutableReferences": {},
  "source": "// SPDX-License-Identifier: MIT\r\npragma solidity ^0.8.20;\r\n\r\nimport \"./InsuranceManager.sol\";\r\n\r\ncontract PatientPolicy {\r\n    InsuranceManager public insuranceManager;\r\n\r\n    mapping(address => uint[]) public purchasedPolicies;\r\n\r\n    event PolicyPurchased(address indexed patient, uint indexed policyId);\r\n\r\n    constructor(address _insuranceManagerAddress) {\r\n        insuranceManager = InsuranceManager(_insuranceManagerAddress);\r\n    }\r\n\r\n    function purchasePolicy(uint _policyId) public payable {\r\n        InsuranceManager.Policy memory policy = insuranceManager.getPolicy(_policyId);\r\n\r\n        require(msg.value == policy.basePremium, \"Incorrect premium sent\");\r\n\r\n        purchasedPolicies[msg.sender].push(_policyId);\r\n\r\n        emit PolicyPurchased(msg.sender, _policyId);\r\n    }\r\n\r\n    function getMyPolicies(address _user) public view returns (uint[] memory) {\r\n        return purchasedPolicies[_user];\r\n    }\r\n}\r\n",
  "sourcePath": "D:\\projects\\blockChain\\supply-chain-management\\blockchain\\contracts\\PatientPolicy.sol",
  "compiler": {
    "name": "solc",
    "version": "0.8.21+commit.d9974bed.Emscripten.clang"
  },
  "schemaVersion": "3.4.16",
  "updatedAt": "2025-06-07T18:40:18.252Z",
  "networkType": "ethereum",
  "devdoc": {
    "kind": "dev",
    "methods": {},
    "version": 1
  },
  "userdoc": {
    "kind": "user",
    "methods": {},
    "version": 1
  }
}